:020000040000FA
:04000000C7EF3EF018
:107D8E0000012CEF3FF0000E066E04BED3EF3EF066
:107D9E00D1EF3EF0D9EF3EF0036C041ED8B0042AAA
:107DAE00010E066E02BEE0EF3EF0DEEF3EF0E6EFB5
:107DBE003EF0016C021ED8B0022A010E061A000E09
:107DCE00086E000E076E03500410D8B4F1EF3EF0AB
:107DDE00F3EF3EF01BEF3FF0010E056EFBEF3EF0B2
:107DEE00D89003360436052A04AE00EF3FF002EFBA
:107DFE003FF0F7EF3EF0D890073608360350015C9F
:107E0E0004500258D8A00EEF3FF010EF3FF015EFE0
:107E1E003FF00350015E0450025A0780D89004329E
:107E2E000332052E02EF3FF00650D8B421EF3FF09B
:107E3E0023EF3FF027EF3FF0076C081ED8B0082A5B
:107E4E0007C001F008C002F0120094809482959051
:107E5E009592959495968390839283948396000E33
:107E6E000C6E000E0B6E82B23FEF3FF041EF3FF013
:107E7E005CEF3FF00CBE4CEF3FF00C5008E10B04F2
:107E8E00D8A04CEF3FF04EEF3FF05CEF3FF0030E0B
:107E9E000A6E8A0E096E560EE82EFED7092EFCD7F4
:107EAE000A2EFAD70B06D8A00C0682B061EF3FF06F
:107EBE0063EF3FF07EEF3FF00CBE71EF3FF00C50E2
:107ECE0007E1090E0B5CD8B06FEF3FF071EF3FF09A
:107EDE007EEF3FF0030E0A6E8A0E096E560EE82EE6
:107EEE00FED7092EFCD70A2EFAD70B4A0C2A0BC046
:107EFE000DF00CC00EF00DA087EF3FF08BEF3FF0B2
:107F0E00096A092A8CEF3FF0096A83500918FE0BA3
:107F1E000918836E0DC001F00EC002F0000E046E43
:107F2E00020E036ECAEC3EF001C00DF002C00EF060
:107F3E000DA0A4EF3FF0A8EF3FF0096A092AA9EFC0
:107F4E003FF0096A094683500918FD0B0918836E24
:107F5E000DC001F00EC002F0000E046E020E036E94
:107F6E00CAEC3EF001C00DF002C00EF00DA0C2EF43
:107F7E003FF0C6EF3FF0096A092AC7EF3FF0096AE2
:107F8E000946094683500918FB0B0918836E0DC06C
:107F9E0001F00EC002F0000E046E020E036ECAEC6B
:107FAE003EF001C00DF002C00EF00DA0E1EF3FF06B
:107FBE00E5EF3FF0096A092AE6EF3FF0096A094644
:107FCE000946094683500918F70B0918836E0DC030
:107FDE0001F00EC002F0000E046E020E036ECAEC2B
:107FEE003EF001C00DF002C00EF03AEF3FF000EF90
:027FFE0000F091
:020000040020DA
:08000000FFFFFFFFFFFFFFFF00
:020000040030CA
:0E000000000C191EFF0080FF0FC00FE00F4024
:00000001FF
