:020000040000FA
:0400000063EF00F0BA
:060008005682A6ED23F074
:100018005680D8CF05F0E8CF06F0E0CF07F0D9CF6B
:1000280008F0DACF09F0F294670ED76E6A0ED66E32
:10003800FC0E016EFF0E026E000E036E020E046EC1
:100048000150032602500422D8900101C435D96E0C
:10005800C535DA6ED890D936DA360350D926045029
:10006800DA226EC1DEFF6FC1DEFF70C1DEFF71C133
:10007800DEFFC44BC52BC5BF4BEF00F0C55109E1EE
:100088003C0EC45DD8A04BEF00F04DEF00F057EFE9
:1000980000F0544A552A000EC56F010EC46F000EB9
:1000A800C36F000EC26F09C0DAFF08C0D9FF07C0CE
:1000B800E0FF06C0E8FF05C0D8FF5690100047EFE4
:0200C80021F025
:1008000000416775617264653A202825642F36308F
:100810002900507265766973616F206E6F206D6577
:100820007300476173746F20706F7220686F72611C
:1008300000436172726567616E646F2E2E2E0045F3
:1008400071756970652036004372656469746F73F1
:1008500000522420252E326600206B576800494E36
:1008600046004E414E00696E66006E616E00206B60
:1008700057006C66003F0000000E00019F6F000EE5
:100880009E6F7FC0B0F080C0B1F081C0B2F082C076
:10089000B3F0B3BF50EF04F04EEF04F066EF04F096
:1008A000000E9F6F010E9E6FB0C00AF0B1C00BF03A
:1008B000B2C00CF0B3C00DF0F8EC22F00AC0B0F0FA
:1008C0000BC0B1F00CC0B2F00DC0B3F0000E0001CF
:1008D000B76F000EB66F4EC0A3F04FC0A4F09E518C
:1008E0009F11D8A476EF04F078EF04F07FEF04F0C6
:1008F00052A47DEF04F07FEF04F099EF04F09E51D5
:100900009F11D8A486EF04F088EF04F08EEF04F076
:10091000000E896F2B0E886F92EF04F0000E896F26
:100920002D0E886F88C072F1B64BB72BA307D8A0E5
:10093000A407B0C00AF0B1C00BF0B2C00CF0B3C055
:100940000DF077EC1DF00A040B10D8A4AAEF04F008
:10095000ACEF04F003EF05F0BF0E496EFF0E4A6ED8
:10096000000183514B6E4C6A49504B264A504C2231
:100970004C500AE11A0E4B5CD8A0C1EF04F0C4EF52
:1009800004F0010EC5EF04F0000E8A6F8B6B8A51E4
:100990008B11D8B4CEEF04F0D0EF04F0DEEF04F00A
:1009A000720EB6250E6E010EB7210F6E5E0E106E22
:1009B000080E116E76EC21F0EAEF04F0720EB62507
:1009C0000E6E010EB7210F6E660E106E080E116EC0
:1009D00076EC21F00001FD0EA327FF0EA4237DC0BD
:1009E0001AF07EC01BF0720E1C6E010E1D6EA3C0AD
:1009F0001EF0A4C01FF09FEC1FF01AC07DF01BC0BA
:100A00007EF014EF0AF0B0C00AF0B1C00BF0B2C033
:100A10000CF0B3C00DF077EC1DF00A500B10D8A409
:100A200014EF05F016EF05F056EF05F0BF0E496E16
:100A3000FF0E4A6E000183514B6E4C6A49504B26A3
:100A40004A504C224C500AE11A0E4B5CD8A02BEFB6
:100A500005F02EEF05F0010E2FEF05F0000E8C6F64
:100A60008D6B8C518D11D8B438EF05F03AEF05F04D
:100A700048EF05F0720EB6250E6E010EB7210F6E0F
:100A8000620E106E080E116E76EC21F0EAEF04F0A3
:100A9000720EB6250E6E010EB7210F6E6A0E106E25
:100AA000080E116E76EC21F0EAEF04F0000E000162
:100AB000B86F000EB96F800EBA6F3F0EBB6F000E9D
:100AC000B56F000EB46FB0C00AF0B1C00BF0B2C089
:100AD0000CF0B3C00DF0000E0E6E000E0F6E000E87
:100AE000106E000E116E58EC20F0D8B07AEF05F0C1
:100AF0007CEF05F0FFEF05F09BEF05F0B8C018F0B4
:100B0000B9C019F0BAC01AF0BBC01BF0000E1C6EC1
:100B1000000E1D6E200E1E6E410E1F6EFDEC12F0BB
:100B200018C0B8F019C0B9F01AC0BAF01BC0BBF0B9
:100B30000001B44BB52BB0C031F0B1C032F0B2C03F
:100B400033F0B3C034F0000E1C6E000E1D6E200E8C
:100B50001E6E410E1F6EB8C018F0B9C019F0BAC0B1
:100B60001AF0BBC01BF0FDEC12F018C035F019C034
:100B700036F01AC037F01BC038F0F5EC1CF0D8B0D6
:100B8000C4EF05F0C6EF05F07EEF05F0E6EF05F0E7
:100B9000B8C039F0B9C03AF0BAC03BF0BBC03CF0C5
:100BA000000E3D6E000E3E6E200E3F6E410E406EFA
:100BB00012EC15F039C0B8F03AC0B9F03BC0BAF049
:100BC0003CC0BBF00001B407D8A0B507B0C031F0FD
:100BD000B1C032F0B2C033F0B3C034F0B8C035F0B9
:100BE000B9C036F0BAC037F0BBC038F0F5EC1CF035
:100BF000D8A0FDEF05F0FFEF05F0C8EF05F083C0CA
:100C000010F0116A17EC21F010500001A56FA5C07B
:100C1000A2F0670EA519D8A410EF06F012EF06F0A7
:100C200038EF06F050505110D8A419EF06F01BEF22
:100C300006F01FEF06F0000E516E010E506E51BE11
:100C40002CEF06F0515006E15004D8B02AEF06F020
:100C50002CEF06F032EF06F0000EA16F060EA06F2B
:100C600041EF06F050C0A0F051C0A1F041EF06F0F6
:100C700051BE3DEF06F03FEF06F02CEF06F032EFED
:100C800006F0670EA519D8A448EF06F04AEF06F063
:100C900079EF06F0B5AF58EF06F0FC0EB45DFF0E2D
:100CA000B559D8A056EF06F058EF06F077EF06F0EA
:100CB000FF0E496EFF0E4A6EA0C04BF0A1C04CF073
:100CC00049504B264A504C22B4514B5C4C50800A40
:100CD0004D6EB551800A4D58D8A071EF06F073EFF4
:100CE00006F077EF06F0660EA26F79EF06F0650E5C
:100CF000A26FA0C098F0A1C099F0670EA519D8A462
:100D000084EF06F086EF06F096EF06F0660EA21965
:100D1000D8A48DEF06F08FEF06F098EF06F0B5BF80
:100D200096EF06F094EF06F098EF06F0984B992BAB
:100D3000660EA219D8A49FEF06F0A1EF06F0C1EF4E
:100D400006F0B5BFA8EF06F0A6EF06F0B4EF06F088
:100D5000000EB86F000EB96F800EBA6F3F0EBB6FFA
:100D6000000EB56F000EB46F670EA519D8B4BBEFB7
:100D700006F0BDEF06F0C1EF06F0B4519827B5516B
:100D80009923000EAF6F000EAE6FB0C0A6F0B1C0D9
:100D9000A7F0B2C0A8F0B3C0A9F0B8C084F0B9C041
:100DA00085F0BAC086F0BBC087F052EF07F0A6C04E
:100DB00039F0A7C03AF0A8C03BF0A9C03CF0B8C0D9
:100DC0003DF0B9C03EF0BAC03FF0BBC040F012ECFD
:100DD00015F039C045F03AC046F03BC047F03CC082
:100DE00048F04FEC18F045C0AAF046C0ABF047C041
:100DF000ACF048C0ADF0AAC00AF0ABC00BF0ACC07C
:100E00000CF0ADC00DF072EC1CF00AC09CF00BC0F1
:100E10009DF0A6C031F0A7C032F0A8C033F0A9C041
:100E200034F0B8C01CF0B9C01DF0BAC01EF0BBC091
:100E30001FF0AAC018F0ABC019F0ACC01AF0ADC0DA
:100E40001BF0FDEC12F018C035F019C036F01AC0D6
:100E500037F01BC038F0F6EC21F031C0A6F032C0FC
:100E6000A7F033C0A8F034C0A9F0B8C039F0B9C0B9
:100E70003AF0BAC03BF0BBC03CF0000E3D6E000E35
:100E80003E6E200E3F6E410E406E12EC15F039C0E2
:100E9000B8F03AC0B9F03BC0BAF03CC0BBF00001BA
:100EA000AE4BAF2B9851AE5DAF51800A496E995150
:100EB000800A4958D8A05FEF07F061EF07F0D7EF3D
:100EC00006F0B8C018F0B9C019F0BAC01AF0BBC02B
:100ED0001BF0000E1C6E000E1D6EA00E1E6E400E4E
:100EE0001F6EFDEC12F018C0AAF019C0ABF01AC0CA
:100EF000ACF01BC0ADF0A6C031F0A7C032F0A8C066
:100F000033F0A9C034F0AAC035F0ABC036F0ACC0A5
:100F100037F0ADC038F0F5EC1CF0D8B092EF07F028
:100F200094EF07F09FEF07F0000E0001AA6F000E8C
:100F3000AB6F000EAC6F000EAD6FC8EF07F0A6C030
:100F40000AF0A7C00BF0A8C00CF0A9C00DF0AAC011
:100F50000EF0ABC00FF0ACC010F0ADC011F058EC0B
:100F600020F0D8A0B6EF07F0B8EF07F0C8EF07F011
:100F700000019CB1BEEF07F0C0EF07F0C8EF07F02B
:100F8000000EAA6F000EAB6F000EAC6F000EAD6FBF
:100F9000B0C00AF0B1C00BF0B2C00CF0B3C00DF09D
:100FA000AAC00EF0ABC00FF0ACC010F0ADC011F095
:100FB0009DEC10F00AC0A6F00BC0A7F00CC0A8F082
:100FC0000DC0A9F084C0B8F085C0B9F086C0BAF0F1
:100FD00087C0BBF0650E0001A219D8B4F2EF07F08C
:100FE000F4EF07F0FAEF07F0B4C09AF0B5C09BF049
:100FF000FEEF07F0000E9B6F000E9A6F000E976FCA
:10100000000E966F000E956F000E946F000EAF6F7E
:10101000000EAE6FFAEF08F0A6C039F0A7C03AF0A4
:10102000A8C03BF0A9C03CF0B8C03DF0B9C03EF04C
:10103000BAC03FF0BBC040F012EC15F039C045F02B
:101040003AC046F03BC047F03CC048F04FEC18F0C7
:1010500045C0AAF046C0ABF047C0ACF048C0ADF008
:10106000AAC00AF0ABC00BF0ACC00CF0ADC00DF0E4
:1010700072EC1CF00AC09CF00BC09DF052B843EF1C
:1010800008F045EF08F063EF08F000019C519D1156
:10109000D8A44DEF08F04FEF08F063EF08F0670EAB
:1010A000A519D8A456EF08F058EF08F063EF08F040
:1010B0009BBF5FEF08F05DEF08F063EF08F0944B23
:1010C000952BAEEF08F0000196519711D8A46BEF65
:1010D00008F06DEF08F097EF08F09BBF74EF08F091
:1010E00072EF08F097EF08F0720EB625D96E010E78
:1010F000B721DA6E2E0EDF6EB64BB72BA307D8A042
:10110000A407000E976F010E966F97EF08F0720E0E
:10111000B625D96E010EB721DA6E300EDF6EB64BF2
:10112000B72BA307D8A0A4079407D8A0950794517C
:101130009511D8A49EEF08F0A0EF08F087EF08F013
:10114000720EB625D96E010EB721DA6E9C51300FA2
:10115000DF6EB64BB72BA307D8A0A407A6C031F00B
:10116000A7C032F0A8C033F0A9C034F0B8C01CF05A
:10117000B9C01DF0BAC01EF0BBC01FF0AAC018F065
:10118000ABC019F0ACC01AF0ADC01BF0FDEC12F012
:1011900018C035F019C036F01AC037F01BC038F04F
:1011A000F6EC21F031C0A6F032C0A7F033C0A8F0B1
:1011B00034C0A9F0B8C039F0B9C03AF0BAC03BF0B9
:1011C000BBC03CF0000E3D6E000E3E6E200E3F6E2A
:1011D000410E406E12EC15F039C0B8F03AC0B9F0CB
:1011E0003BC0BAF03CC0BBF000019A07D8A09B07F7
:1011F000AE4BAF2B9851AE5DAF51800A496E9951FD
:10120000800A4958D8B007EF09F009EF09F017EF45
:1012100009F0B7BF15EF09F0B75109E14B0EB65D04
:10122000D8A015EF09F017EF09F00CEF08F0965170
:101230009711D8A41EEF09F020EF09F031EF09F063
:1012400052A825EF09F027EF09F031EF09F0720EEF
:10125000B625D96E010EB721DA6E2E0EDF6EB64BB3
:10126000B72B720EB625D96E010EB721DA6E000EBD
:10127000DF6E650EA219D8A440EF09F042EF09F025
:10128000EFEF04F0000EAF6F4F0EAE6F720EAE2593
:10129000D96E010EAF21DA6E000EDF6E000E9F6F69
:1012A000000E9E6FB5BF59EF09F057EF09F061EFDF
:1012B00009F0000E9F6F010E9E6FB46DB51FD8B080
:1012C000B52B000EA16F020EA06F92EF09F0AE07D2
:1012D000D8A0AF07720EAE25D96E010EAF21DA6E1F
:1012E000B4C00AF0B5C00BF0000E0D6E0A0E0C6E05
:1012F00000EC20F00A50300FDF6EB4C00AF0B5C029
:101300000BF0000E0D6E0A0E0C6E3DEC1FF00AC0C5
:10131000B4F00BC0B5F00001A007D8A0A107A30747
:10132000D8A0A407B451B511D8A499EF09F09BEF48
:1013300009F067EF09F0A1BFA8EF09F0A15106E19C
:10134000A005D8B0A6EF09F0A8EF09F067EF09F003
:10135000AE07D8A0AF079E519F11D8A4B2EF09F0F5
:10136000B4EF09F0BAEF09F0000E8F6F2B0E8E6FFD
:10137000BEEF09F0000E8F6F2D0E8E6F720EAE2530
:10138000D96E010EAF21DA6E8EC0DFFFA307D8A0A1
:10139000A407AE07D8A0AF07BF0E496EFF0E4A6E76
:1013A00083514B6E4C6A49504B264A504C224C504C
:1013B0000AE11A0E4B5CD8A0E0EF09F0E3EF09F068
:1013C000010EE4EF09F0000E926F936B92519311AE
:1013D000D8A4EDEF09F0EFEF09F0F5EF09F0000EFA
:1013E000916F650E906FF9EF09F0000E916F450E49
:1013F000906F720EAE25D96E010EAF21DA6E90C0DD
:10140000DFFFA307D8A0A407720EB6250E6E010E4B
:10141000B7210F6E720EAE25106E010EAF21116E48
:1014200076EC21F0EFEF04F01200F090F19AF08CDE
:10143000F086F294F194F28AD08EF28CF28E670EDE
:10144000D76E6A0ED66E960ED56E280EF6EC1DF08F
:10145000010EBDEC22F00C0EBDEC22F00D0E0101D0
:10146000006FFB0EE82EFED7002FFCD700D0810EB8
:10147000BDEC22F0310E0B6E080E0C6EADEC20F0C0
:101480001A0E0101016F5E0E006F6E0EE82EFED780
:10149000002FFCD7012FFAD700F0010EBDEC22F08F
:1014A0000D0E0101006FFB0EE82EFED7002FFCD7BA
:1014B00000D090EC23F0000E0101536F060E526F26
:1014C000000E556F1E0E546F000E696F010E686F8F
:1014D000000E646F000E656F000E666F000E676F82
:1014E000000E3A6F400E3B6F1C0E3C6F450E3D6F79
:1014F000000E3E6F000E3F6F390E406F430E416F7E
:1015000093849386000E0101616F000E606F4BECB7
:1015100023F00AC05AF10BC05BF15AC10AF05BC15B
:101520000BF00C6A0D6A000E5AEC19F00AC018F0A4
:101530000BC019F00CC01AF00DC01BF0000E1C6E91
:10154000400E1D6E9C0E1E6E400E1F6EFDEC12F0C6
:1015500018C056F119C057F11AC058F11BC059F103
:101560003EC13DF03FC13EF040C13FF041C140F0BF
:101570003AC135F03BC136F03CC137F03DC138F0DF
:1015800056C131F057C132F058C133F059C134F06F
:10159000F6EC21F031C039F032C03AF033C03BF004
:1015A00034C03CF012EC15F039C042F13AC043F1BE
:1015B0003BC044F13CC045F164C10AF065C10BF089
:1015C00066C10CF067C10DF042C10EF043C10FF0CF
:1015D00044C110F045C111F09DEC10F00AC064F157
:1015E0000BC065F10CC066F10DC067F10101604BE5
:1015F000612B61BF05EF0BF0615109E1140E605DD5
:10160000D8A005EF0BF007EF0BF087EF0AF064C1ED
:1016100039F065C13AF066C13BF067C13CF0000E9D
:101620003D6E000E3E6EA00E3F6E410E406E12ECFF
:1016300015F039C064F13AC065F13BC066F13CC0B9
:1016400067F1000E1C6E000E1D6EDC0E1E6E420E4B
:101650001F6E64C118F065C119F066C11AF067C148
:101660001BF0FDEC12F018C039F019C03AF01AC0A6
:101670003BF01BC03CF0000E3D6E000E3E6E7A0E3D
:101680003F6E440E406E12EC15F039C06EF13AC058
:101690006FF13BC070F13CC071F1010171BF55EFBA
:1016A0000BF053EF0BF06AEF0BF0260E0001E26F28
:1016B000010EE36F540EE46F080EE56F000EE66F47
:1016C000000EE76F000EE86F000EE96FA4EC21F04A
:1016D0007DEF0BF0260E0001E26F010EE36F540E5A
:1016E000E46F080EE56F6EC1E6F06FC1E7F070C100
:1016F000E8F071C1E9F0A4EC21F0260E186E010E9D
:10170000196E6E0E1A6E080E1B6E61EC23F0000E41
:1017100001016A6F000E6B6F000E6C6F000E6D6F33
:10172000000E636F000E626F63BFA0EF0BF063519A
:1017300009E13C0E625DD8A0A0EF0BF0A2EF0BF028
:10174000A4EF0BF0D3EF0BF06AC10AF06BC10BF002
:101750006CC10CF06DC10DF0000E006F020E016F38
:10176000D8906235D96E6335DA6ED890D936DA36CC
:101770000051D9260151DA22DECF0EF0DECF0FF074
:10178000DECF10F0DECF11F09DEC10F00AC06AF150
:101790000BC06BF10CC06CF10DC06DF10101624B1F
:1017A000632B94EF0BF06DBFDAEF0BF0D8EF0BF07B
:1017B000EFEF0BF0300E0001E26F010EE36F540EFD
:1017C000E46F080EE56F000EE66F000EE76F000E87
:1017D000E86F000EE96FA4EC21F01CEF0CF06AC179
:1017E00039F06BC13AF06CC13BF06DC13CF0000EBA
:1017F0003D6E000E3E6E700E3F6E420E406E12EC5D
:1018000015F039C046F13AC047F13BC048F13CC041
:1018100049F1300E0001E26F010EE36F540EE46FE8
:10182000080EE56F46C1E6F047C1E7F048C1E8F0B1
:1018300049C1E9F0A4EC21F0300E186E010E196ECA
:10184000590E1A6E080E1B6E61EC23F0000E01019A
:101850005C6F000E5D6F000E5E6F000E5F6F6AC101
:1018600018F06BC119F06CC11AF06DC11BF0A90E14
:101870001C6E380E1D6E7B0E1E6E3C0E1F6EFDEC38
:1018800012F018C05CF119C05DF11AC05EF11BC006
:101890005FF101016DBF51EF0CF04FEF0CF066EFFF
:1018A0000CF0120E0001E26F010EE36F510EE46FB7
:1018B000080EE56F000EE66F000EE76F000EE86F92
:1018C000000EE96FA4EC21F079EF0CF0120E00018C
:1018D000E26F010EE36F510EE46F080EE56F5CC11D
:1018E000E6F05DC1E7F05EC1E8F05FC1E9F0A4ECAD
:1018F00021F001016DBF81EF0CF07FEF0CF096EF4E
:101900000CF01C0E0001E26F010EE36F510EE46F4C
:10191000080EE56F000EE66F000EE76F000EE86F31
:10192000000EE96FA4EC21F0F5EF0CF05CC11CF0A7
:101930005DC11DF05EC11EF05FC11FF052C10AF013
:1019400053C10BF0000E0BBEFF0E0C6E0D6E010EA0
:101950005AEC19F00AC018F00BC019F00CC01AF0BC
:101960000DC01BF0FDEC12F018C04AF119C04BF18C
:101970001AC04CF11BC04DF14AC118F04BC119F00F
:101980004CC11AF04DC11BF054C10AF055C10BF007
:10199000000E0BBEFF0E0C6E0D6E010E5AEC19F010
:1019A0000AC01CF00BC01DF00CC01EF00DC01FF0D3
:1019B000FDEC12F018C04EF119C04FF11AC050F1F1
:1019C0001BC051F11C0E0001E26F010EE36F510EBE
:1019D000E46F080EE56F4EC1E6F04FC1E7F050C16D
:1019E000E8F051C1E9F0A4EC21F0010EBDEC22F0C9
:1019F0000D0E0101006FFB0EE82EFED7002FFCD765
:101A000000D081B406EF0DF008EF0DF027EF0DF0D8
:101A1000010169BF15EF0DF0695109E1020E685D22
:101A2000D8A015EF0DF017EF0DF027EF0DF06807B8
:101A3000D8A069070D0E0101016FAF0E006FB60E41
:101A4000E82EFED7002FFCD7012FFAD700F081B681
:101A50002CEF0DF02EEF0DF0D7EF0DF0010169BF67
:101A60003DEF0DF0695107E1030E685DD8B03BEF23
:101A70000DF03DEF0DF0D7EF0DF0684B692B0D0E1B
:101A80000101016FAF0E006FB60EE82EFED7002FDA
:101A9000FCD7012FFAD700F0D7EF0DF0810EBDEC87
:101AA00022F0220E0B6E080E0C6EADEC20F0010140
:101AB000C251C311D8B45FEF0DF061EF0DF07BEFB1
:101AC0000DF0C00EBDEC22F0020E0001E26F010E1F
:101AD000E36F010EE46F080EE56FC4C1E6F0C5C107
:101AE000E7F0A4EC21F0020E0B6E010E0C6EADECD3
:101AF00020F0F2EF0DF0C50EBDEC22F0120E0B6ED1
:101B0000010E0C6EADEC20F0F2EF0DF0800EBDEC8E
:101B100022F0120E0B6E080E0C6EADEC20F00101DF
:101B2000C251C311D8B497EF0DF099EF0DF0ADEF9E
:101B30000DF0C00EBDEC22F0020E0001E26F010EAE
:101B4000E36F010EE46F080EE56FC4C1E6F0C5C196
:101B5000E7F0A4EC21F073EF0DF0C50EBDEC22F020
:101B60001C0E0B6E010E0C6EADEC20F0F2EF0DF0C2
:101B7000840EBDEC22F0480E0B6E080E0C6EADEC20
:101B800020F0C40EBDEC22F03F0E0B6E080E0C6E62
:101B9000ADEC20F0F2EF0DF0C60EBDEC22F0750EAC
:101BA0000B6E080E0C6EADEC20F0F2EF0DF068C17C
:101BB00000F169C101F101010151000AD8B4E3EF5C
:101BC0000DF0CCEF0DF00051010AD8B44EEF0DF03E
:101BD000030AD8B486EF0DF0010AD8B4B8EF0DF0BF
:101BE000CCEF0DF0030E0101016F8A0E006F550E50
:101BF000E82EFED7002FFCD7012FFAD700D082EFB6
:101C00000AF063EF00F0BEC0D9FFBFC0DAFFDECF3D
:101C1000F6FFDDCFF7FF0800F550250AD8A413EF33
:101C20000EF015EF0EF081EF10F0BEC0D9FFBFC06F
:101C3000DAFFDE2A000EDD22000E4F6E000E4E6E21
:101C40004EC052F04FC053F050685168BEC0D9FF2B
:101C5000BFC0DAFFDECFF6FFDDCFF7FF0800F5509B
:101C60002E0AD8A436EF0EF038EF0EF0B6EF0EF0D5
:101C7000000E516E000E506EBEC0D9FFBFC0DAFF1D
:101C8000DE2A000EDD22BEC0D9FFBFC0DAFFDECFE4
:101C9000F6FFDDCFF7FF0800F5502A0AD8A453EF6E
:101CA0000EF055EF0EF072EF0EF0BEC0D9FFBFC0C0
:101CB000DAFFDE2A000EDD22C0C0D9FFC1C0DAFF84
:101CC000DFCFC2F0020EDE26DFCFC3F0000EDD2232
:101CD000C2C0D9FFC3C0DAFFDECF50F0DDCF51F074
:101CE000B6EF0EF0BEC0D9FFBFC0DAFFDECF11F0F5
:101CF000DDCF12F034EC1AF011C050F012C051F0E8
:101D000089EF0EF0BEC0D9FFBFC0DAFFDE2A000E99
:101D1000DD22D00E0001C26FFF0EC36FBEC0D9FF1F
:101D2000BFC0DAFFDECFF6FFDDCFF7FF0800F550CA
:101D3000C46FC56BC251C427C351C523C5510AE145
:101D40000A0EC45DD8A0A7EF0EF0AAEF0EF0010EA8
:101D5000ABEF0EF0000ECE6FCF6BCE51CF11D8A4EB
:101D6000B4EF0EF0B6EF0EF082EF0EF0BEC0D9FF6A
:101D7000BFC0DAFFDECFF6FFDDCFF7FF0800F5507A
:101D8000106E116A17EC21F010500001D26FD25181
:101D9000D8B4CDEF0EF0CFEF0EF009EF0FF0BEC0CC
:101DA000D9FFBFC0DAFFDECFC2F0DDCFC3F0010E36
:101DB000C227000EC323C2C0F6FFC3C0F7FF08004E
:101DC000F550106E116A17EC21F010500001D36F1E
:101DD000D351D8B4EEEF0EF0F0EF0EF009EF0FF0A4
:101DE000BEC0D9FFBFC0DAFFDECFC2F0DDCFC3F087
:101DF000020EC227000EC323C2C0F6FFC3C0F7FF06
:101E00000800F550106E116A17EC21F01050000117
:101E1000D46FBEC0D9FFBFC0DAFFDECFF6FFDDCF83
:101E2000F7FF0800F550640AD8B419EF0FF01BEF64
:101E30000FF02DEF0FF0BEC0D9FFBFC0DAFFDECF2D
:101E4000F6FFDDCFF7FF0800F550690AD8A42BEFA5
:101E50000FF02DEF0FF06DEF0FF0BEC0D9FFBFC038
:101E6000DAFFDE2A000EDD22C0C0D9FFC1C0DAFFD2
:101E7000DFCFC2F0020EDE26DFCFC3F0000EDD2280
:101E8000C2C0D9FFC3C0DAFFDECFC6F0DDCFC7F0D6
:101E9000000EC7BFFF0EC86FC96FCA6FCB6FCC6F84
:101EA000CD6FBCC025F0BDC026F0C6C027F0C7C0AE
:101EB00028F0C8C029F0C9C02AF0CAC02BF0CBC096
:101EC0002CF0CCC02DF0CDC02EF0E0EC16F025C0EB
:101ED000BCF026C0BDF09CEF10F0660ED219D8A45D
:101EE00074EF0FF076EF0FF0B6EF0FF0BEC0D9FF32
:101EF000BFC0DAFFDECFF6FFDDCFF7FF0800F5CF7A
:101F0000D9F0BEC0D9FFBFC0DAFFDE2A000EDD2245
:101F1000C0C0D9FFC1C0DAFFDFCFC2F0040EDE2699
:101F2000DFCFC3F0000EDD22C2C0D9FFC3C0DAFF8D
:101F3000DECFD5F0DECFD6F0DECFD7F0DECFD8F0D3
:101F4000BCC07DF0BDC07EF0D5C07FF0D6C080F0B3
:101F5000D7C081F0D8C082F0D9C083F03CEC04F047
:101F60007DC0BCF07EC0BDF09CEF10F0D20E0A6EBA
:101F7000000E0B6E720E0C6E080E0D6E000E0F6EC4
:101F8000020E0E6E6DEC1EF00A500B10D8A4CBEFB3
:101F90000FF0CDEF0FF049EF10F0BEC0D9FFBFC07A
:101FA000DAFFDECFC2F0DDCFC3F0010E0001C227A1
:101FB000000EC323C2C0F6FFC3C0F7FF0800F5CF71
:101FC000D9F0BF0EC26FFF0EC36FBEC0D9FFBFC036
:101FD000DAFFDECFF6FFDDCFF7FF0800F550C46F64
:101FE000C56BC251C427C351C523C5510AE11A0E9E
:101FF000C45DD8A0FEEF0FF001EF10F0010E02EF6C
:1020000010F0000ED06FD16BD051D111D8B40BEFBE
:1020100010F00DEF10F027EF10F0C0C0D9FFC1C0D5
:10202000DAFFDFCFC2F0040EDE26DFCFC3F0000EF2
:10203000DD22C2C0D9FFC3C0DAFFDECFD5F0DECFCC
:10204000D6F0DECFD7F0DECFD8F03FEF10F0C0C033
:10205000D9FFC1C0DAFFDFCFC2F0040EDE26DFCF2A
:10206000C3F0000EDD22C2C0D9FFC3C0DAFFDECF4D
:10207000D5F0DECFD6F0DECFD7F0DECFD8F0020E2F
:10208000BEC0D9FFBFC0DAFFDE26000EDD22A0EF02
:102090000FF0BEC0D9FFBFC0DAFFDECFF6FFDDCF45
:1020A000F7FF0800F550250AD8A459EF10F05BEFB0
:1020B00010F073EF10F0BEC0D9FFBFC0DAFFDE2A08
:1020C000000EDD22000E0B6E250E0A6EBCC00CF059
:1020D000BDC00DF0D8EC1EF0000E0001BD6F010E6A
:1020E000BC6F9CEF10F0BEC0D9FFBFC0DAFFDE2A84
:1020F000000EDD22000E0001BD6F000EBC6F9CEFD4
:1021000010F0BEC0D9FFBFC0DAFFDECFF6FFDDCFD3
:10211000F7FF0800F5500A6E0B6ABCC00CF0BDC09A
:102120000DF0D8EC1EF0BEC0D9FFBFC0DAFFDE2A2A
:10213000000EDD226CEF10F012000D50800B166EB9
:102140000D500D24186E0CAEA8EF10F0AAEF10F091
:10215000ABEF10F018801850D8B4B1EF10F0B3EF17
:1021600010F0C8EF10F01828D8A4B9EF10F0BBEFAA
:1021700010F0C3EF10F0000E0A6E000E0B6E000E92
:102180000C6E000E0D6E0C8E000E0D6ED0EF10F06A
:10219000000E0A6E000E0B6E000E0C6E000E0D6E21
:1021A0001150800B176E16501718D8B4DAEF10F0D4
:1021B000DCEF10F0DDEF10F0168C11501124176ECB
:1021C00010AEE5EF10F0E7EF10F0E8EF10F0178039
:1021D0001750D8B4EEEF10F0F0EF10F005EF11F05B
:1021E0001728D8A4F6EF10F0F8EF10F000EF11F078
:1021F000000E0E6E000E0F6E000E106E000E116EB1
:10220000108E000E116E0DEF11F0000E0E6E000E0E
:102210000F6E000E106E000E116E1850175CD8B0C5
:1022200014EF11F016EF11F03DEF11F016AC1BEFAB
:1022300011F01DEF11F01FEF11F0800E161A18C0EB
:1022400019F017C018F019C017F00AC019F00EC025
:102250000AF019C00EF00BC019F00FC00BF019C036
:102260000FF00CC019F010C00CF019C010F00DC028
:1022700019F011C00DF019C011F0000E196E1850B0
:1022800017C012F0136A125E000E135A13BE52EFFB
:1022900011F0135009E11A0E125CD8A052EF11F0A0
:1022A00054EF11F08BEF11F00A500B100C100D10C1
:1022B000D8A45DEF11F060EF11F0010E61EF11F0A5
:1022C000000E196E000E0A6E000E0B6E000E0C6EE4
:1022D000000E0D6E17C018F094EF11F019A073EFF7
:1022E00011F075EF11F07BEF11F0D8901930010962
:1022F000196E7DEF11F0D89019320AA082EF11F01B
:1023000084EF11F085EF11F0198E0D340D320C327F
:102310000B320A32182A1750185CD8A092EF11F02D
:1023200094EF11F06EEF11F016BC99EF11F09BEFE6
:1023300011F0DBEF11F01850D8A4A1EF11F0A3EFCA
:1023400011F0ADEF11F0000E0A6E000E0B6E000ED4
:102350000C6E000E0D6EFCEF12F00E500A260F50A0
:102360000B2210500C2211500D220DA0BAEF11F0CB
:10237000BCEF11F068EF12F019A0C1EF11F0C3EF3C
:1023800011F0C9EF11F0D89019300109196ECBEF97
:1023900011F0D89019320AA0D0EF11F0D2EF11F05D
:1023A000D3EF11F0198E0D340D320C320B320A328C
:1023B000182A68EF12F00E500A5C0F500B5810509C
:1023C0000C580D50800A126E1150800A1258D8B065
:1023D000ECEF11F0EEEF11F019EF12F00A500E5C75
:1023E000126E0B500F58136E0C501058146E0D5087
:1023F0001158156EFF0E12240A6EFF0E13200B6E7D
:10240000FF0E14200C6EFF0E15200D6E800E161A96
:10241000196C1950D8A40FEF12F011EF12F021EF40
:1024200012F0010E0A26000E0B220C220D2221EFC3
:1024300012F00E500A5E0F500B5A10500C5A1150E9
:102440000D5A0A500B100C100D10D8A42AEF12F0E0
:102450002CEF12F061EF12F01950D8A432EF12F005
:1024600034EF12F061EF12F0000E0A6E000E0B6EE8
:10247000000E0C6E000E0D6EFCEF12F0D8900A36B6
:102480000B360C360D3619AE48EF12F04AEF12F04B
:102490004BEF12F00A8019A050EF12F052EF12F039
:1024A00056EF12F0D880193658EF12F0D89019363E
:1024B0001850D8B45EEF12F060EF12F061EF12F036
:1024C00018060CAE66EF12F068EF12F03EEF12F055
:1024D000000E176E19AE6FEF12F071EF12F089EF68
:1024E00012F019C012F07F0E1216D8B47AEF12F063
:1024F0007CEF12F080EF12F0010E176E89EF12F0F0
:102500000AA085EF12F087EF12F089EF12F07CEF4E
:1025100012F01750D8B48FEF12F091EF12F0BCEF19
:1025200012F0010E0A26000E0B220C220D220DA025
:102530009CEF12F09EEF12F0BCEF12F00AC012F006
:102540000BC013F00CC014F00DC015F0153415328B
:1025500014321332123212C00AF013C00BF014C03E
:102560000CF015C00DF01828D8B4B9EF12F0BBEF7D
:1025700012F0BCEF12F0182A1828D8B4C2EF12F0EB
:10258000C4EF12F0CCEF12F01850D8A4CAEF12F03A
:10259000CCEF12F0DEEF12F0000E0A6E000E0B6EA2
:1025A000000E0C6E000E0D6E1850D8A4DAEF12F06B
:1025B000DCEF12F0DEEF12F0000E166E18A0E3EF63
:1025C00012F0E5EF12F0E8EF12F00C8EE9EF12F0E6
:1025D0000C9ED89018300D6E16AEF1EF12F0F3EF9E
:1025E00012F0F4EF12F00D8E0AC00AF00BC00BF0DF
:1025F0000CC00CF00DC00DF012001B50800B246EAF
:102600001B501B242A6E1AAE08EF13F00AEF13F0CA
:102610000BEF13F02A802A50D8B411EF13F013EF08
:1026200013F026EF13F02A28D8A419EF13F01BEFAC
:1026300013F023EF13F0000E186E000E196E000E4B
:102640001A6E000E1B6E1A8E2EEF13F0000E186E0F
:10265000000E196E000E1A6E000E1B6E1F50800BBE
:10266000241A1F501F24296E1EAE39EF13F03BEFC2
:1026700013F03CEF13F029802950D8B442EF13F047
:1026800044EF13F057EF13F02928D8A44AEF13F0C2
:102690004CEF13F054EF13F0000E1C6E000E1D6E85
:1026A000000E1E6E000E1F6E1E8E5FEF13F0000EEA
:1026B0001C6E000E1D6E000E1E6E000E1F6E295049
:1026C000D8B465EF13F067EF13F06FEF13F02A50F3
:1026D000D8A46DEF13F06FEF13F079EF13F0000E45
:1026E000186E000E196E000E1A6E000E1B6E11EFA2
:1026F00015F01E501802F3CF2FF0F4CF30F02F500A
:10270000256E266A276A286A30502B6E2C6A2D6A3D
:102710002E6A1D501902F3CF2FF0F4CF30F02F5056
:102720002526000E26222722282230502B26000E96
:102730002C222D222E221C501A02F3CF2FF0F4CF80
:1027400030F02F502526000E262227222822305036
:102750002B26000E2C222D222E2227C028F026C048
:1027600027F025C026F0256A1C501902F3CF2FF060
:10277000F4CF30F02F50252630502622000E27228D
:10278000000E28221D501802F3CF2FF0F4CF30F0A6
:102790002F50252630502622000E2722000E2822F8
:1027A00027C028F026C027F025C026F0256A1C5037
:1027B0001802F3CF2FF0F4CF30F02F5025263050F1
:1027C0002622000E2722000E28221E501902F3CFC7
:1027D0002FF0F4CF30F02F502B2630502C22000E4B
:1027E0002D22000E2E221D501A02F3CF2FF0F4CF0F
:1027F00030F02F502B2630502C22000E2D22000EB0
:102800002E221E501A02F3CF2FF0F4CF30F02F50AB
:10281000206E3050216E226A236A22C023F021C02C
:1028200022F020C021F0206A20502B2621502C229B
:1028300022502D2223502E2225C020F026C021F028
:1028400027C022F028C023F0190E2CEF14F0D890E6
:102850002332223221322032E82E27EF14F020508A
:102860002B2621502C2222502D2223502E2227C0ED
:1028700028F026C027F025C026F0256A29502AC056
:1028800020F0216A2026000E2122820E20242F6EA5
:10289000FF0E2120306E62EF14F0D8902B362C36CC
:1028A0002D362E3628AE57EF14F059EF14F05AEFAC
:1028B00014F02B80D89025362636273628362F065A
:1028C000D8A030062DAE67EF14F069EF14F04DEF8D
:1028D00014F0000E296E28AE70EF14F072EF14F0B1
:1028E00096EF14F0FF0E2514206EFF0E2614216EB5
:1028F000FF0E2714226E7F0E2814236E2050211005
:1029000022102310D8B487EF14F089EF14F08DEF64
:1029100014F0010E296E96EF14F02BA092EF14F034
:1029200094EF14F096EF14F089EF14F02950D8B416
:102930009CEF14F09EEF14F0C2EF14F0010E2B2662
:10294000000E2C222D222E222EA0A9EF14F0ABEF88
:1029500014F0C2EF14F02BC020F02CC021F02DC0D9
:1029600022F02EC023F023342332223221322032AF
:1029700020C02BF021C02CF022C02DF023C02EF05F
:102980002F4A302A30BECDEF14F0305008E12F2806
:10299000D8A0CDEF14F0CFEF14F0D9EF14F0000E63
:1029A0002B6E000E2C6E800E2D6E7F0E2E6E07EF9E
:1029B00015F030BEE6EF14F0305006E12F04D8B029
:1029C000E4EF14F0E6EF14F0F2EF14F0000E2B6ECB
:1029D000000E2C6E000E2D6E000E2E6E000E246E5C
:1029E00007EF15F02FC02AF0FF0E2B16FF0E2C1646
:1029F0007F0E2D16000E2E162AA001EF15F003EF04
:102A000015F004EF15F02D8ED8902A302E6E24503C
:102A10002E122BC018F02CC019F02DC01AF02EC0A9
:102A20001BF012003C50800B0001646F3C503C24B2
:102A30006B6F3BAE1EEF15F020EF15F021EF15F098
:102A40006B816B51D8B427EF15F029EF15F03EEFED
:102A500015F06B29D8A42FEF15F031EF15F039EFF1
:102A600015F0000E396E000E3A6E000E3B6E000E31
:102A70003C6E3B8E000E3C6E46EF15F0000E396E3C
:102A8000000E3A6E000E3B6E000E3C6E4050800B06
:102A9000641B405040246C6F3FAE51EF15F053EF74
:102AA00015F054EF15F06C816C51D8B45AEF15F055
:102AB0005CEF15F071EF15F06C29D8A462EF15F0FA
:102AC00064EF15F06CEF15F0000E3D6E000E3E6EDB
:102AD000000E3F6E000E406E3F8E000E406E79EF8E
:102AE00015F0000E3D6E000E3E6E000E3F6E000EA5
:102AF000406E3D503E103F104010D8A482EF15F0BC
:102B000084EF15F09CEF15F0000E396E000E3A6E52
:102B1000000E3B6E000E3C6E800E3B127F0E3C1290
:102B200064513C1239C039F03AC03AF03BC03BF036
:102B30003CC03CF0DFEF16F06B51D8A4A2EF15F0CB
:102B4000A4EF15F0AEEF15F0000E396E000E3A6EE0
:102B5000000E3B6E000E3C6EDFEF16F06C516BC04A
:102B600041F0426A415E000E425A7F0E4124656F79
:102B7000000E4220666F39C060F03AC061F03BC081
:102B800062F03CC063F0000E396E000E3A6E000E2B
:102B90003B6E000E3C6E000E676F000E686F000EFD
:102BA000696F000E6A6F000E6C6F0FEF16F06C51BC
:102BB000D8B4DDEF15F0DFEF15F0F6EF15F0D89093
:102BC0006037613762376337D89039363A363B36EB
:102BD0003C366AAFEEEF15F0F0EF15F0F1EF15F0BF
:102BE0003980D8906737683769376A373D50605DFC
:102BF0003E5061593F50625940506359D8A003EF8D
:102C000016F005EF16F00EEF16F06A8D3D50605F7E
:102C10003E50615B3F50625B4050635B6C2B190E12
:102C20006C6515EF16F017EF16F0D7EF15F0605141
:102C3000611162116311D8B420EF16F022EF16F083
:102C40003AEF16F067813AEF16F0D89039363A36F7
:102C50003B363C366AAF2FEF16F031EF16F032EF0D
:102C600016F03980D8906737683769376A37650753
:102C7000D8A066073BAE3FEF16F041EF16F025EF08
:102C800016F0000E6C6F6AAF48EF16F04AEF16F0C0
:102C90006EEF16F0FF0E6715416EFF0E6815426E5F
:102CA000FF0E6915436E7F0E6A15446E4150421047
:102CB00043104410D8B45FEF16F061EF16F065EFE3
:102CC00016F0010E6C6F6EEF16F039A06AEF16F079
:102CD0006CEF16F06EEF16F061EF16F06C51D8B491
:102CE00074EF16F076EF16F09AEF16F0010E392613
:102CF000000E3A223B223C223CA081EF16F083EFEB
:102D000016F09AEF16F039C041F03AC042F03BC0DD
:102D100043F03CC044F04434443243324232413206
:102D200041C039F042C03AF043C03BF044C03CF0EF
:102D3000654B662B66BFA5EF16F0665108E1652965
:102D4000D8A0A5EF16F0A7EF16F0B2EF16F0000E20
:102D5000666F6569000E396E000E3A6E000E3B6EAE
:102D6000000E3C6E66BFBFEF16F0665106E16505CA
:102D7000D8B0BDEF16F0BFEF16F0CDEF16F0000E95
:102D8000666F000E656F000E396E000E3A6E000E13
:102D90003B6E000E3C6E000E646F65C06BF06BA165
:102DA000D4EF16F0D6EF16F0D9EF16F03B8EDAEF2F
:102DB00016F03B9ED8906B313C6E90EF15F01200F0
:102DC00027C03FF028C040F029C041F02AC042F09F
:102DD0002BC043F02CC044F02DC045F02EC046F06F
:102DE00046BEF5EF16F0F8EF16F0010EF9EF16F00B
:102DF000000E3D6E3E6A3D503E10D8B402EF17F013
:102E000004EF17F014EF17F0461E451E441E431E34
:102E1000421E411E401E3F6C000E402241224222B3
:102E2000432244224522462251BE19EF17F01BEFE0
:102E300017F01CEF17F0529251BE29EF17F05150C6
:102E400006E15004D8B027EF17F029EF17F02FEF65
:102E500017F0000E3A6E010E396E33EF17F050C0C6
:102E600039F051C03AF04EC03BF04FC03CF03D50FD
:102E70003E10D8A43EEF17F040EF17F047EF17F0E1
:102E800052A445EF17F047EF17F04AEF17F03B0653
:102E9000D8A03C06000E486E4F0E476E000E010192
:102EA000C16FCFEF17F04706D8A04806720E47242F
:102EB000D96E010E4820DA6E3FC00AF040C00BF018
:102EC00041C00CF042C00DF043C00EF044C00FF002
:102ED00045C010F046C011F00A0E126E000E136EBF
:102EE000000E146E000E156E000E166E000E176E9C
:102EF000000E186E000E196EC0EC1BF00AC02FF009
:102F00000BC030F00CC031F00DC032F00EC033F009
:102F10000FC034F010C035F011C036F02FC01CF0D7
:102F200031C01DF05EEC22F01C50300FDF6E390610
:102F3000D8A03A063B06D8A03C063FC00AF040C0E5
:102F40000BF041C00CF042C00DF043C00EF044C085
:102F50000FF045C010F046C011F00A0E126E000EC0
:102F6000136E000E146E000E156E000E166E000E1F
:102F7000176E000E186E000E196EFCEC1AF00AC0E7
:102F80003FF00BC040F00CC041F00DC042F00EC04D
:102F900043F00FC044F010C045F011C046F048BEE9
:102FA000DAEF17F0485008E14704D8A0DAEF17F03D
:102FB000DCEF17F00CEF18F03F50401041104210BA
:102FC0004310441045104610D8A4E9EF17F0EBEF7A
:102FD00017F053EF17F03ABEF8EF17F03A5006E14A
:102FE0003904D8B0F6EF17F0F8EF17F053EF17F0F9
:102FF0003CBE03EF18F03C5008E13B04D8A003EFBF
:1030000018F005EF18F00CEF18F052B20AEF18F0B4
:103010000CEF18F053EF17F03D503E10D8A413EF0B
:1030200018F015EF18F01CEF18F052A41AEF18F072
:103030001CEF18F03AEF18F04706D8A048063D50AC
:103040003E10D8A426EF18F028EF18F02EEF18F055
:10305000000E386E2B0E376E32EF18F0000E386E01
:103060002D0E376E720E4724D96E010E4820DA6E8F
:1030700037C0DFFF25C01AF026C01BF0720E4724B0
:103080001C6E010E48201D6E3BC01EF03CC01FF0A0
:103090009FEC1FF01AC025F01BC026F01200F4C0F0
:1030A00079F0F5C07AF0F6C07BF0F7C07CF045C04F
:1030B00079F046C07AF047C07BF048C07CF0810EC2
:1030C00000016D6FFF0E6E6F79C06FF07AC070F007
:1030D0007BC071F07CC072F0180E74EF18F0D890BD
:1030E0007233713370336F33E82E6FEF18F06F5116
:1030F0006D25776F000E6E21786F78BF89EF18F01D
:10310000785109E1170E775DD8A089EF18F08BEFA1
:1031100018F095EF18F045C045F046C046F047C09E
:1031200047F048C048F059EF19F078BF9AEF18F00F
:103130009CEF18F00DEF19F077C06DF0FF0E6E6F79
:10314000FF0E6F6F7F0E706F000E716F6D67ABEFCC
:1031500018F0B3EF18F07135713370336F336E338D
:103160006D2FA6EF18F06EC073F06FC074F070C0D2
:1031700075F071C076F00001735179156D6F74515F
:103180007A156E6F75517B156F6F76517C15706F68
:103190006D516E116F117011D8A4D1EF18F0D3EFEB
:1031A00018F0D5EF18F08BEF18F079C06DF07AC0F9
:1031B0006EF07BC06FF07CC070F0200EE5EF18F071
:1031C000D89070336F336E336D33E82EE0EF18F024
:1031D0006D516E116F117011D8B4F1EF18F0F3EF5B
:1031E00018F0FBEF18F07351792774517A23755159
:1031F0007B2376517C23731D6D6F741D6E6F751D5F
:103200006F6F761D706F6D5179176E517A176F5110
:103210007B1770517C1751EF19F079C06DF07AC0AF
:103220006EF07BC06FF07CC070F0200E1DEF19F0C7
:10323000D89070336F336E336D33E82E18EF19F07A
:103240006D516E116F117011D8A429EF19F02BEF89
:1032500019F035EF19F0000E796F000E7A6F000E3D
:103260007B6F000E7C6F51EF19F0D89079356D6F40
:103270007A356E6F7B356F6F7C35706F6D516E1167
:103280006F117011D8B447EF19F049EF19F051EFF1
:1032900019F0000E796F000E7A6F800E7B6FBF0EF3
:1032A0007C6F79C045F07AC046F07BC047F07CC0A7
:1032B00048F01200126E1250D8B461EF19F063EFAB
:1032C00019F085EF19F00DBE6AEF19F068EF19F0EB
:1032D00085EF19F00AC00EF00BC00FF00CC010F013
:1032E0000DC011F00E1E0F1E101E111E0E2A000E14
:1032F0000F22102211220EC014F00FC015F010C0C2
:1033000016F011C017F08DEF19F00AC014F00BC0C1
:1033100015F00CC016F00DC017F00A500B100C1071
:103320000D10D8A496EF19F098EF19F0A2EF19F04C
:10333000000E0A6E000E0B6E000E0C6E000E0D6E6F
:1033400033EF1AF0960E136EACEF19F0132AD890E3
:103350001732163215321432000E14140E6E000E8F
:1033600015140F6E000E1614106EFE0E1714116E4B
:103370000E500F1010101110D8A4C1EF19F0C3EFA8
:1033800019F0A6EF19F0D1EF19F0132A010E142647
:10339000000E152216221722D89017321632153237
:1033A0001432000E14140E6E000E15140F6E000E63
:1033B0001614106EFF0E1714116E0E500F10101011
:1033C0001110D8A4E6EF19F0E8EF19F0C5EF19F0E5
:1033D000F0EF19F01306D890143615361636173656
:1033E00016BEF5EF19F0F7EF19F0FFEF19F0020E26
:1033F0001360FDEF19F0FFEF19F0EAEF19F013B0C9
:1034000004EF1AF006EF1AF007EF1AF0169ED890A4
:10341000133213C00EF00F6A106A116A0EC011F059
:10342000106A0F6A0E6A0E5014120F5015121050C7
:103430001612115017121250D8B421EF1AF023EFC0
:103440001AF02BEF1AF00DBE2AEF1AF028EF1AF03F
:103450002BEF1AF0178E14C00AF015C00BF016C02F
:103460000CF017C00DF01200000E1F6E000E1E6E45
:10347000000E186E000E176E40EF1AF0114A122A55
:10348000010E1D6E11C0F6FF12C0F7FF0800F550C7
:10349000200AD8B44EEF1AF050EF1AF06DEF1AF080
:1034A000F70E136EFF0E146E11C0F6FF12C0F7FF79
:1034B0000800F550156E166A135015261450162282
:1034C000165009E1050E155CD8A069EF1AF06BEFF4
:1034D0001AF06DEF1AF0000E1D6E1DC019F01A6A79
:1034E00019501A10D8A477EF1AF079EF1AF03EEFBE
:1034F0001AF083EF1AF0000E186E010E176E114AC3
:10350000122AB8EF1AF011C0F6FF12C0F7FF080038
:10351000F550136E146A1450000AD8B492EF1AF0E2
:10352000B8EF1AF013502B0AD8B47FEF1AF0060A3E
:10353000D8B47BEF1AF0B8EF1AF01EC00AF01FC023
:103540000BF0000E0D6E0A0E0C6E74EC23F011C021
:10355000F6FF12C0F7FF0800F5500A5E000E0B5A86
:10356000300E0A241E6E000E0B201F6E7FEF1AF025
:10357000D00E136EFF0E146E11C0F6FF12C0F7FFCF
:103580000800F550156E166A1350152614501622B1
:1035900016500AE10A0E155CD8A0D1EF1AF0D4EF4C
:1035A0001AF0010ED5EF1AF0000E1B6E1C6A1B50AC
:1035B0001C10D8A4DEEF1AF0E0EF1AF09DEF1AF01D
:1035C00017501810D8A4E7EF1AF0E9EF1AF0F7EF48
:1035D0001AF01EC013F01FC014F0131E141E134A5D
:1035E000142A13C011F014C012F0FBEF1AF01EC021
:1035F00011F01FC012F01200000E1B6E19BE05EF75
:103600001BF003EF1BF017EF1BF0191E181E171EFF
:10361000161E151E141E131E126C000E13221422E9
:1036200015221622172218221922010E1B6E11BE16
:103630001EEF1BF01CEF1BF030EF1BF0111E101ED5
:103640000F1E0E1E0D1E0C1E0B1E0A6C000E0B22F2
:103650000C220D220E220F2210221122010E1B1A03
:1036600020EE1CF0070EDE6AE806FDE21250131091
:10367000141015101610171018101910D8B443EFA5
:103680001BF045EF1BF097EF1BF0010E1A6E53EF86
:103690001BF0D890123613361436153616361736F8
:1036A000183619361A2A19AE58EF1BF05AEF1BF0CC
:1036B00049EF1BF0D8901C361D361E361F362036BB
:1036C00021362236233612500A5C13500B58145000
:1036D0000C5815500D5816500E5817500F581850BA
:1036E000105819501158D8A078EF1BF07AEF1BF042
:1036F0008BEF1BF012500A5E13500B5A14500C5AE9
:1037000015500D5A16500E5A17500F5A1850105A7D
:103710001950115A1C80D8901932183217321632AB
:1037200015321432133212321A2E5AEF1BF01B507C
:10373000D8B49DEF1BF09FEF1BF0AFEF1BF0231EE3
:10374000221E211E201E1F1E1E1E1D1E1C6C000E72
:103750001D221E221F2220222122222223221CC0BF
:103760000AF01DC00BF01EC00CF01FC00DF020C0F1
:103770000EF021C00FF022C010F023C011F0120093
:10378000000E1B6E11BEC9EF1BF0C7EF1BF0DBEF85
:103790001BF0111E101E0F1E0E1E0D1E0C1E0B1EEA
:1037A0000A6C000E0B220C220D220E220F22102278
:1037B0001122010E1B6E19BEE2EF1BF0E0EF1BF0B1
:1037C000F2EF1BF0191E181E171E161E151E141ED2
:1037D000131E126C000E1322142215221622172219
:1037E0001822192212501310141015101610171049
:1037F00018101910D8B4FFEF1BF001EF1CF049EFBF
:103800001CF0010E1A6E0FEF1CF0D8901236133612
:103810001436153616361736183619361A2A19AED2
:1038200014EF1CF016EF1CF005EF1CF012500A5CB0
:1038300013500B5814500C5815500D5816500E5864
:1038400017500F581850105819501158D8A02BEF76
:103850001CF02DEF1CF03DEF1CF012500A5E1350CF
:103860000B5A14500C5A15500D5A16500E5A175028
:103870000F5A1850105A1950115AD890193218323C
:103880001732163215321432133212321A2E16EF44
:103890001CF01B50D8B44FEF1CF051EF1CF061EF3F
:1038A0001CF0111E101E0F1E0E1E0D1E0C1E0B1ED8
:1038B0000A6C000E0B220C220D220E220F22102267
:1038C00011220AC00AF00BC00BF00CC00CF00DC0A6
:1038D0000DF00EC00EF00FC00FF010C010F011C0B0
:1038E00011F012000C340D34136E1350D8A47BEF7A
:1038F0001CF07DEF1CF087EF1CF0000E0A6E000E2E
:103900000B6E000E0C6E000E0D6EF4EF1CF00AC074
:103910000EF00BC00FF00CC010F00DC011F0200E17
:1039200097EF1CF0D890113210320F320E32E82E81
:1039300092EF1CF00E50126E0C8EFF0E0A16FF0E48
:103940000B16FF0E0C16000E0D16960E135E13BE10
:10395000AEEF1CF0ACEF1CF0C4EF1CF01350800A6B
:10396000970FD8B0B6EF1CF0B8EF1CF0BAEF1CF010
:103970007DEF1CF0D8900D320C320B320A32133E20
:10398000BAEF1CF0DCEF1CF01F0E1364CAEF1CF042
:10399000CCEF1CF0D4EF1CF07DEF1CF0D8900A3671
:1039A0000B360C360D3613061350D8A4DAEF1CF084
:1039B000DCEF1CF0CEEF1CF01250D8B4E2EF1CF09C
:1039C000E4EF1CF0ECEF1CF00D1E0C1E0B1E0A6C3D
:1039D000000E0B220C220D220AC00AF00BC00BF0C5
:1039E0000CC00CF00DC00DF01200000E3114396E39
:1039F000000E32143A6E800E33143B6E7F0E341478
:103A00003C6E39503A103B103C10D8A40AEF1DF020
:103A10000CEF1DF014EF1DF0000E316E000E326E33
:103A2000000E336E000E346E000E3514396E000E2B
:103A300036143A6E800E37143B6E7F0E38143C6E8F
:103A400039503A103B103C10D8A429EF1DF02BEF51
:103A50001DF033EF1DF0000E356E000E366E000EB9
:103A6000376E000E386E34AE38EF1DF03AEF1DF0B1
:103A700043EF1DF0316C321ED8B0322A331ED8B05D
:103A8000332A800E345638AE48EF1DF04AEF1DF051
:103A900053EF1DF0356C361ED8B0362A371ED8B01D
:103AA000372A800E3856000E311A000E321A000ED8
:103AB000331A800E341A000E351A000E361A000E14
:103AC000371A800E381A3550315C3650325837501C
:103AD000335838503458D8B070EF1DF072EF1DF0E5
:103AE00075EF1DF0D89076EF1DF0D8801200F8C069
:103AF00014F0F9C015F0FAC016F0FBC017F00AC0B8
:103B000014F00BC015F00CC016F00DC017F014C067
:103B10000EF015C00FF016C010F017C011F0180EFF
:103B200097EF1DF0D890113210320F320E32E82E7E
:103B300092EF1DF00E50126E136A12501310D8A49B
:103B4000A4EF1DF0A6EF1DF0C6EF1DF0D8901434C1
:103B50000E6E15340F6E1634106E1734116E0E5033
:103B60000F1010101110D8A4B8EF1DF0BAEF1DF00F
:103B7000C0EF1DF0000E0B6E020E0A6EF5EF1DF089
:103B8000000E0B6E030E0A6EF5EF1DF012281310D7
:103B9000D8A4CDEF1DF0CFEF1DF0F1EF1DF014C054
:103BA0000EF015C00FF016C010F017C011F0090E7E
:103BB000D8900E360F3610361136E82ED8EF1DF09D
:103BC0000E500F1010101110D8B4E9EF1DF0ECEFEB
:103BD0001DF0010EEDEF1DF0000E0A6E0B6AF5EF01
:103BE0001DF0000E0B6E040E0A6E12000B6E0F0E0F
:103BF00083160F0E95169392969096928A928D90B8
:103C00008D9299EC23F0300EBDEC22F087EC23F07E
:103C100087EC23F0300EBDEC22F087EC23F087EC2C
:103C200023F0320EBDEC22F019EC22F00009D8A4EA
:103C30001CEF1EF01EEF1EF014EF1EF019EC22F028
:103C40000009D8A426EF1EF028EF1EF01EEF1EF08C
:103C50000B50BDEC22F019EC22F00009D8A433EF90
:103C60001EF035EF1EF02BEF1EF0080EBDEC22F01B
:103C700019EC22F00009D8A440EF1EF042EF1EF02C
:103C800038EF1EF00F0EBDEC22F019EC22F0000907
:103C9000D8A44DEF1EF04FEF1EF045EF1EF0010EC1
:103CA000BDEC22F019EC22F00009D8A45AEF1EF066
:103CB0005CEF1EF052EF1EF0040EBDEC22F019EC8A
:103CC00022F00009D8A467EF1EF069EF1EF05FEF45
:103CD0001EF0800E7EEC22F012000AC011F00BC024
:103CE00012F00CC013F00DC014F00E06D8A00F0691
:103CF0000E2806E10F28D8A480EF1EF082EF1EF0F8
:103D00008FEF1EF0000E0B6E000E0A6ED7EF1EF046
:103D1000114A122A134A142A0E06D8A00F0611C0FF
:103D2000D9FF12C0DAFFDF50D8B499EF1EF09BEF35
:103D30001EF0C6EF1EF013C0F6FF14C0F7FF080018
:103D4000F5500009D8B4A7EF1EF0A9EF1EF0C6EF9A
:103D50001EF00E500F10D8B4B0EF1EF0B2EF1EF0F0
:103D6000C6EF1EF011C0D9FF12C0DAFFDF50106E8F
:103D700013C0F6FF14C0F7FF0800F5501018D8B4B0
:103D8000C4EF1EF0C6EF1EF088EF1EF011C0D9FF81
:103D900012C0DAFFDF50106E13C0F6FF14C0F7FF39
:103DA0000800F550105C0A6E0B6AD8A00B061200D2
:103DB0000C500D10D8B4DFEF1EF0E1EF1EF0EAEF6B
:103DC0001EF00C500D10D8A4E8EF1EF0EAEF1EF024
:103DD000EFEF1EF00A50ADEC23F03CEF1FF020EEA9
:103DE00004F00C50D9260D50DA22DE50DE10D8B483
:103DF000FCEF1EF0FEEF1EF019EF1FF020EE04F0B6
:103E00000C50D9260D50DA2210EE02F00C50E126AB
:103E10000D50E222DE50E65CE650800A126EDE5063
:103E2000800A1258D8B017EF1FF019EF1FF03CEFBF
:103E30001FF020EE02F00C50D9260D50DA22DECF12
:103E40000EF0DDCF0FF00CC0D9FF0DC0DAFFDECFD2
:103E500010F0DDCF11F00E501024D96E0F5011204C
:103E6000DA6E0AC0DFFF20EE02F00C50D9260D50AA
:103E7000DA22DE2A000EDD221200000E0F6E0DBEC9
:103E800046EF1FF044EF1FF04CEF1FF00C6C0D1EBF
:103E9000D8B00D2A010E0F6E0BBE53EF1FF051EF7D
:103EA0001FF059EF1FF00A6C0B1ED8B00B2A010E41
:103EB0000F1A000E116E000E106E0C500D10D8B4BB
:103EC00064EF1FF066EF1FF08EEF1FF0010E0E6E15
:103ED0006EEF1FF0D8900C360D360E2A0DAE73EF34
:103EE0001FF075EF1FF06AEF1FF0D89010361136F3
:103EF0000C500A5C0D500B58D8A081EF1FF083EFD7
:103F00001FF088EF1FF00C500A5E0D500B5A108006
:103F1000D8900D320C320E2E75EF1FF00F50D8B422
:103F200094EF1FF096EF1FF09AEF1FF0106C111E28
:103F3000D8B0112A10C00AF011C00BF0120052A024
:103F4000A4EF1FF0A6EF1FF0B0EF1FF01CC013F09E
:103F50001DC014F01AC015F01BC016F03CEC22F086
:103F60001FBEB5EF1FF0B7EF1FF0BDEF1FF01EC073
:103F700023F01FC024F0C1EF1FF0000E246E000ECE
:103F8000236E000E226E000E216ED3EF1FF0000E86
:103F90000B6E200E0A6E1AC00CF01BC00DF0D8EC90
:103FA0001EF0214A222A2350215C2250800A206ED2
:103FB0002450800A2058D8A0E0EF1FF0E2EF1FF055
:103FC000C7EF1FF052B0E7EF1FF0E9EF1FF0F3EF7C
:103FD0001FF01CC013F01DC014F01AC015F01BC058
:103FE00016F03CEC22F01CC00AF01DC00BF030ECC7
:103FF00023F023500A241A6E24500B201B6E12004B
:10400000000E0F6E0BBE09EF20F007EF20F00FEF50
:1040100020F00A6C0B1ED8B00B2A010E0F6E0DBEDD
:1040200016EF20F014EF20F01AEF20F00C6C0D1EAC
:10403000D8B00D2A0C500D10D8B421EF20F023EF8A
:1040400020F047EF20F0010E0E6E2BEF20F0D890FD
:104050000C360D360E2A0DAE30EF20F032EF20F088
:1040600027EF20F00C500A5C0D500B58D8A03BEF06
:1040700020F03DEF20F041EF20F00C500A5E0D5093
:104080000B5AD8900D320C320E2E32EF20F00F501A
:10409000D8B44DEF20F04FEF20F053EF20F00A6C32
:1040A0000B1ED8B00B2A0AC00AF00BC00BF012008E
:1040B000000E0A14126E000E0B14136E800E0C14F8
:1040C000146E7F0E0D14156E12501310141015106F
:1040D000D8A46DEF20F06FEF20F077EF20F0000E06
:1040E0000A6E000E0B6E000E0C6E000E0D6E000EB2
:1040F0000E14126E000E0F14136E800E1014146E38
:104100007F0E1114156E1250131014101510D8A430
:104110008CEF20F08EEF20F096EF20F0000E0E6E68
:10412000000E0F6E000E106E000E116E0E500A186B
:104130000FE10F500B180CE110500C1809E1115051
:104140000D18D8B4A6EF20F0A8EF20F0ABEF20F0C8
:10415000D890ACEF20F0D8801200CDEF20F019EC11
:1041600022F00009D8A4B7EF20F0B9EF20F0AFEFAC
:1041700020F00BC0F6FF0CC0F7FFF86A070EF764DB
:1041800003D00800F55005D0F6CFE1FFF7CFE2FFEE
:10419000E7509EEC22F00B4A0C2A0BC0F6FF0CC035
:1041A000F7FFF86A070EF76403D00800F55005D052
:1041B000F6CFE1FFF7CFE2FFE7500009D8A4E3EF25
:1041C00020F0E5EF20F0AFEF20F01200DCC0E0F0CF
:1041D000DDC0E1F0000E0001FD6F000EFC6F04EF8A
:1041E00021F0DAC0BCF0DBC0BDF0E00EBE6F000E07
:1041F000BF6FDEC0C0F0DFC0C1F003EC0EF0000105
:10420000BC51FC27BD51FD23E0C0F6FFE1C0F7FF24
:104210000800F5500009D8A410EF21F012EF21F0AA
:10422000F1EF20F0FCC0DAF0FDC0DBF01200BF0EB1
:10423000126EFF0E136E10C014F011C015F0125064
:1042400014261350152215500AE11A0E145CD8A03A
:104250002CEF21F02FEF21F0010E30EF21F0000EB6
:10426000166E176A16501710D8B439EF21F03BEFCD
:1042700021F042EF21F0200E1010106E1150116E3F
:1042800046EF21F010C010F011C011F01200560ED0
:10429000F66E470EF76E000EF86E01EEC2F010EEED
:1042A00004F00900F5CFEEFFE550E150FAE102EE2F
:1042B00000F0F00EEE6AE806FDE101EE6EF0540E3D
:1042C000EE6AE806FDE100EEF4F00C0EEE6AE80698
:1042D000FDE100EE4EF0080EEE6AE806FDE15690B4
:1042E0005692000EF86E000115EF0AF010C014F09F
:1042F00011C015F00EC016F00FC017F01450126E5A
:104300001550136E144A152A12C0F6FF13C0F7FF9A
:10431000F86A16C0D9FF17C0DAFF164A172A070E27
:10432000F76403D00800F55005D0F6CFE1FFF7CFD2
:10433000E2FFE750DF6EDF50D8A4A1EF21F0A3EF3A
:1043400021F07EEF21F01200E60E0001EC6F000E6E
:10435000ED6FE2C0EEF0E3C0EFF0000EF16F000E83
:10436000F06F000EF36F000EF26FEE0EDA6F000EBC
:10437000DB6FE4C0DCF0E5C0DDF0EC0EDE6F000EBC
:10438000DF6FE6EC20F00001F051E225D96EF1512B
:10439000E321DA6E000EDF6E1200010E106E200EA9
:1043A0000A180B10D8B4D7EF21F0D9EF21F0F2EFB3
:1043B00021F0F70E0C6EFF0E0D6E0AC00EF00BC052
:1043C0000FF00C500E260D500F220F5009E1050E74
:1043D0000E5CD8A0EEEF21F0F0EF21F0F2EF21F02B
:1043E000000E106E10C00AF00B6A1200000E351A93
:1043F000000E361A000E371A800E381A31C00AF035
:1044000032C00BF033C00CF034C00DF035C00EF0EC
:1044100036C00FF037C010F038C011F09DEC10F02E
:104420000AC031F00BC032F00CC033F00DC034F0D4
:1044300012008A828D90A1EC23F08D82A1EC23F0F2
:1044400083AE25EF22F027EF22F032EF22F08D929B
:10445000A1EC23F08D82A1EC23F08D928A92010EC3
:104460003BEF22F08D92A1EC23F08D82A1EC23F0A2
:104470008D928A92000E1200000E196E000E186EB8
:104480004DEF22F017C00AF00B6A15C00CF016C0F1
:104490000DF0D8EC1EF0184A192A18501324D96EC2
:1044A00019501420DA6EDF50176E1750D8A45BEF46
:1044B00022F05DEF22F042EF22F012001DBE6BEF02
:1044C00022F01D5006E11C04D8B069EF22F06BEF1A
:1044D00022F079EF22F01CC01EF01DC01FF01E1E3E
:1044E0001F1E1E4A1F2A1EC01CF01FC01DF07DEF9C
:1044F00022F01CC01CF01DC01DF012000A6E0F0E31
:1045000095160F0E83160A508009F00B83128A92BB
:104510008D90A1EC23F08D82A1EC23F08D920F0EF3
:1045200083160A38F00BF00B8312A1EC23F08D8276
:10453000A1EC23F08D92F00E951212000A6E0F0E70
:1045400095160F0E83160A50F00B83128D808A92F7
:10455000A1EC23F08D82A1EC23F08D920F0E831637
:104560000A38F00BF00B8312A1EC23F08D82A1EC42
:1045700023F08D92F00E951212000A6E0F0E951612
:104580000F0E83160A50F00B83128A928D90A1ECC5
:1045900023F08D82A1EC23F08D920F0E83160A3842
:1045A000F00BF00B8312A1EC23F08D82A1EC23F031
:1045B0008D92F00E95121200BF0E0C6EFF0E0D6E56
:1045C0000AC00EF00BC00FF00C500E260D500F223B
:1045D0000F500AE11A0E0E5CD8A0F1EF22F0F4EFB2
:1045E00022F0010EF5EF22F0000E0A6E0B6A1200A7
:1045F0000A500B100C100D10D8B401EF23F003EF8C
:1046000023F00BEF23F0000E0A1A000E0B1A000E17
:104610000C1A800E0D1A0AC00AF00BC00BF00CC069
:104620000CF00DC00DF01200D00E0C6EFF0E0D6ED2
:104630000AC00EF00BC00FF00C500E260D500F22CA
:104640000F500AE10A0E0E5CD8A029EF23F02CEFE0
:1046500023F0010E2DEF23F0000E0A6E0B6A1200FC
:104660000AC00CF00BC00DF038EF23F00A4A0B2AF9
:104670000AC0D9FF0BC0DAFFDF50D8A442EF23F005
:1046800044EF23F036EF23F00C500A5C0A6E0D5015
:104690000B580B6E1200C282C2B251EF23F053EFDF
:1046A00023F04CEF23F0C4CF0EF00F6A0E500C6EC7
:1046B000C3500E6E0CC00FF00EC00AF00FC00BF00E
:1046C000120018C00AF019C00BF030EC23F00A50A9
:1046D00018240E6E0B5019200F6E1AC010F01BC05C
:1046E00011F076EC21F012000A500C02F3CF0EF01C
:1046F000F4CF0FF00A500D02F3500F260B500C02AE
:10470000F3500F260EC00AF00FC00BF01200210E5E
:104710000A6E760EE82EFED70A2EFCD700D01200C5
:104720009280000EC26E0E0EC16ED90EC06EC28097
:104730001200620E0A6E660EE82EFED70A2EFCD715
:104740001200210EE82EFED700F012000600F090B5
:0C475000D57E56921100010001001200FD
:020000040020DA
:08000000FFFFFFFFFFFFFFFF00
:020000040030CA
:0E000000000C1E1EFF8080FF0FC00FE00F409F
:00000001FF
